:100000000C94B3000C94D0000C94D0000C94D0004D
:100010000C9406070C94D0000C94D0000C94D000E3
:100020000C94D0000C9481020C94D0000C94D0005D
:100030000C94D0000C94D0000C94D0000C94D00000
:100040000C94D0000C94D0000C94D0000C94D000F0
:100050000C94D000C206C506C706C906CC06CE065B
:10006000D106D4066E616E00696E660000407A109B
:10007000F35A00A0724E18090010A5D4E80000E859
:100080007648170000E40B54020000CA9A3B0000B7
:1000900000E1F505000080969800000040420F0046
:1000A0000000A08601000000102700000000E80307
:1000B000000000006400000000000A0000000000D2
:1000C0000100000000002C76D888DC674F0823DF91
:1000D000C1DFAE59E1B1B796E5E3E453C63AE65164
:1000E000997696E8E6C28426EB898C9B62ED407C8B
:1000F0006FFCEFBC9C9F40F2BAA56FA5F490055A27
:100100002AF75C936B6CF9676DC11BFCE0E40D474B
:10011000FEF520E6B500D0ED902E0300943577056E
:100120000080841E080000204E0A000000C80C3326
:100130003333330F986E12831141EF8D2114893BB5
:10014000E65516CFFEE6DB18D1844B381BF77C1D35
:10015000901DA4BBE424203284725E228100C9F188
:1001600024ECA1E53D2711241FBECFE5D4E0DEBF7E
:10017000CDBF10E0A0E6B0E0E2EAFFE102C00590EA
:100180000D92AA36B107D9F711E0AAE6B0E001C096
:100190001D92AE32B107E1F70E94CE010C94CF0F51
:1001A0000C94000080919100803158F08091900073
:1001B000803138F09091940081E0903118F080E027
:1001C00001C081E081700895CF93DF93C0E0D0E05B
:1001D000FE01EE0FFF1FEE0FFF1FE855FF4F80815E
:1001E0009181A281B381BC01CD019F772AE939E9D0
:1001F00049E15EE30E94EA0D181634F02196CE31F3
:10020000D10531F781E001C080E0DF91CF91089501
:100210008091720090917300A0917400B09175006C
:1002200080936C0090936D00A0936E00B0936F006C
:1002300060917200709173008091740090917500CC
:1002400020916C0030916D0040916E0050916F00D4
:100250000E94F80B9F7720E030E044E352E40E94D4
:100260005D0C87FF0AC00E94E400811103C00E9458
:10027000D203DECF0E944301DBCF60E070E080E07C
:1002800090E00C94C80360E070E080E090E00E9491
:10029000C8030E94D200811116C064E77FEF84E793
:1002A0009FEF0E94C8032FEF86E191E1215080402B
:1002B0009040E1F700C0000060E070E080E090E076
:1002C0000E94C80320C06CE870E08CE890E00E94B7
:1002D000C8032FEF87E893E1215080409040E1F779
:1002E00000C0000060E070E080E090E00E94C80381
:1002F0009091930080919200891718F40E94080150
:1003000002C00E94860110927600089580917200CA
:1003100090917300A0917400B091750080936C006F
:1003200090936D00A0936E00B0936F006091720087
:1003300070917300809174009091750020916C0011
:1003400030916D0040916E0050916F000E94F80B4B
:100350009F7720E030E044E352E40E945D0C87FF89
:100360000AC00E94E400811103C00E94DA03DECFBC
:100370000E944301DBCF60E070E080E090E00C94ED
:10038000C80378940E942D080E949E070E94EA04E8
:100390000E94A9030E94E0060C9448072FEF82EB0D
:1003A00091EF215080409040E1F700C000000E9492
:1003B000C1010E94FE062FEF80E792E021508040AD
:1003C0009040E1F700C000002EE180E090E0A0E066
:1003D000B0E480931C0190931D01A0931E01B09383
:1003E0001F012150B1F70E948C07C1E00E94E40078
:1003F000882319F00E9443015DC00E94D200882327
:10040000F1F080919400833308F059C0409190003E
:10041000809191002091940030E090E0840F911D34
:1004200095958795281B390B263031050CF447C06C
:1004300066E57FEF82E99FEF0E94C8033BC0809191
:1004400094008C3378F56091940070E070936B00A9
:1004500060936A00882777FD8095982F0E94FC0C96
:1004600020E030E040E751E40E94F90B20E030E06A
:1004700040E752E40E94610C20E030E04CE053EC95
:100480000E94EE0D0E94C90C70939B0060939A002D
:10049000CB014E960E94BF0380919A0090919B00E1
:1004A0004E9706C082E99FEF0E94BF0386E59FEF4B
:1004B0000E94B60310929F0010929E0097CF8091E9
:1004C0009F0081110FC080919E0081110BC09091FF
:1004D000930080919200891718F4C0939F0002C086
:1004E000C0939E0080919F00882319F00E9408010C
:1004F0007DCF80919E00882309F478CF0E948601E9
:1005000075CF1F920F920FB60F921124CF92DF92E8
:10051000EF92FF920F931F932F933F934F935F930D
:100520006F937F938F939F93AF93BF93EF93FF93BB
:10053000CF93DF9300D000D0CDB7DEB780919C0081
:1005400090919D008D3F22E0920738F481509F4F9B
:1005500090939D0080939C00AFC058E7E52E50E03B
:10056000F52E0CE710E020E830E044E850E068E8C1
:1005700070E08CE890E00E94750560918C007091AD
:100580008D0080918E0090918F002AE939E949E130
:100590005EE30E94F90B60938C0070938D00809352
:1005A0008E0090938F00E091950080918C00909147
:1005B0008D00A0918E00B0918F0024E0E29FF001A9
:1005C0001124E855FF4F80839183A283B3838091E8
:1005D00095008D3119F41092950005C08091950019
:1005E0008F5F8093950085E00E94EF0680939400D2
:1005F00085E00E94E5068093930085E00E94EA066C
:100600008093920085E00E94F9068093910085E036
:100610000E94F406809390002091930090919200A4
:1006200081E0921708F080E08093770019821A82A7
:100630001B821C82CE0101960E9450070E948C07EB
:100640008091780090917900A0917A00B0917B0020
:10065000BC01CD019F7720E030E040E050E40E94F3
:10066000EA0D181624F5C0907200D0907300E09047
:100670007400F0907500609178007091790080911D
:100680007A0090917B0029813A814B815C810E94A4
:10069000EE0D9B01AC01C701B6010E94F90B6093FE
:1006A00072007093730080937400909375001092A1
:1006B0009D0010929C0012BE0F900F900F900F9013
:1006C000DF91CF91FF91EF91BF91AF919F918F916A
:1006D0007F916F915F914F913F912F911F910F915A
:1006E000FF90EF90DF90CF900F900FBE0F901F9074
:1006F00018952091630097FF0AC091958195910903
:10070000222361F0C198C09A1092630007C02111A2
:1007100005C0C19AC09821E02093630061E00C9469
:100720005F062091620097FF0AC09195819591091B
:10073000222361F0C298C39A1092620007C021116F
:1007400005C0C29AC39821E02093620062E00C9435
:100750005F060E944B06B99AB89ABA9A87B3876F18
:1007600087BBC19AC098C29AC39808959C01215032
:100770003F4F2F3F314010F40C94910308959C019A
:1007800021503F4F2F3F314010F40C9479030895CE
:10079000CF93DF93EB010E94BF03CE01DF91CF9196
:1007A0000C94B60386E990E00E9479038AE69FEFF5
:1007B0000C9491038AE69FEF0E94790386E990E00A
:1007C0000C949103AF92BF92DF92EF92FF920F933E
:1007D0001F93CF93DF9300D0CDB7DEB7182FD62E5F
:1007E00080ED49835A830E94A207812F0E94E5076A
:1007F00085E38A95F1F7000081ED0E94A207498107
:10080000A42E5A81B52E00E010E0ED2CF12CE1E091
:10081000EE1AF1080D1580F40E151F0519F40E944B
:10082000170802C00E940108F50180830F5F1F4F67
:10083000FFEFAF1ABF0AEECF0E94D8078D2D0F90A1
:100840000F90DF91CF911F910F91FF90EF90DF906C
:10085000BF90AF90089561110C94E20380E0089579
:10086000AB0161E00C94E203EF92FF920F931F93B0
:10087000CF93DF9300D0CDB7DEB7082F162F6623B6
:1008800009F180ED49835A830E94A207802F0E94BC
:10089000E5074981042FE42E5A81F52E8E2D801B09
:1008A000811730F4F70181917F010E94E507F6CFAF
:1008B0000F900F90DF91CF911F910F91FF90EF90CC
:1008C0000C94D8070F900F90DF91CF911F910F914B
:1008D000FF90EF900895CF93DF931F92CDB7DEB7CF
:1008E0006983AE014F5F5F4F61E00E9434040F9057
:1008F000DF91CF9108950F931F93CF93DF9300D093
:100900001F92CDB7DEB7182F062F1982BE016F5F79
:100910007F4F2B834A830E9430042B814A81882396
:1009200009F1602F70E0641B71096F5F7F4FE1E098
:10093000F0E002C0EE0FFF1F4A95E2F73197062E56
:1009400001C0EE0F0A94EAF701C0220F6A95EAF798
:100950006E2F609589816823E2236E2B6983812F36
:100960000E946B040F900F900F90DF91CF911F9119
:100970000F9108950F931F93CF93DF9300D0CDB7BE
:10098000DEB7182F062FBE016F5F7F4F4A830E948C
:10099000300489814A8121E030E0002E01C0220F1D
:1009A0000A94EAF7442319F0682F622B03C0622FE0
:1009B000609568236983812F0E946B040F900F90CC
:1009C000DF91CF911F910F91089540E066E08BE693
:1009D0000C94BA040E949E0725E32A95F1F70000C3
:1009E0008FEF91EE24E0815090402040E1F700C06D
:1009F00000000E94E5048FE39CE90197F1F700C035
:100A0000000021E043E062E08BE60E947B0423E0EB
:100A100043E062E08AE10E947B0464E089E10E9495
:100A20006B0423E042E064E08BE10E947B0420E061
:100A300042E064E08CE10C947B048F929F92AF9231
:100A4000BF92CF92DF92EF92FF920F931F93CF93BB
:100A5000DF93EC015B016A01490140E251E06EE085
:100A60008BE30E942B04209120018091210190E0D2
:100A7000922B99838883209122018091230190E019
:100A8000922BF5019183808320912401809125018F
:100A900090E0922BF6019183808320912801809130
:100AA000290190E0922BF4019183808320912A0107
:100AB00080912B0190E0922BF8019183808320910B
:100AC0002C0180912D0190E0922BF701918380837E
:100AD000DF91CF911F910F91FF90EF90DF90CF901A
:100AE000BF90AF909F908F9008952F923F924F921A
:100AF0005F926F927F928F929F92AF92BF92CF92AE
:100B0000DF92EF92FF920F931F93CF93DF93CDB7B6
:100B1000DEB72C970FB6F894DEBF0FBECDBF3C01F9
:100B20004B015A016901280117011C861B861A8690
:100B3000198618861F821E821D821C821B821A82C1
:100B40001982CE0101967C018E010D5F1F4F9E011F
:100B50002B5F3F4FAE01495F5F4FBE01675F7F4F25
:100B6000CE010B960E941D056B857C85665B7340EC
:100B7000882777FD8095982F0E94FC0C20E030E0BC
:100B800040E858E30E94EE0DF30160837183828395
:100B9000938369857A85665E7F4F882777FD809588
:100BA000982F0E94FC0C20E030E040E858E30E94BF
:100BB000EE0DF40160837183828393836F81788566
:100BC000665D7C4F882777FD8095982F0E94FC0CEE
:100BD00020E030E040E858E30E94EE0DF50160832C
:100BE0007183828393836D817E816C5D7F4F8827C3
:100BF00077FD8095982F0E94FC0C23E333E343E8B4
:100C000051E40E94610CF6016083718382839383B7
:100C10006B817C816C5F7F4F882777FD8095982F53
:100C20000E94FC0C23E333E343E851E40E94610C8F
:100C3000F201608371838283938369817A81685F23
:100C40007F4F882777FD8095982F0E94FC0C23E327
:100C500033E343E851E40E94610CF1016083718346
:100C6000828393832C960FB6F894DEBF0FBECDBF60
:100C7000DF91CF911F910F91FF90EF90DF90CF9078
:100C8000BF90AF909F908F907F906F905F904F90AC
:100C90003F902F90089581B3806381BB8FB5806AA8
:100CA0008FBD8FB581608FBD8EB588608EBD1BBC3A
:100CB0001ABC19BC18BC8EB582608EBD0895613017
:100CC00021F490E09BBD8ABD0895623019F490E054
:100CD00099BD88BD0895CF92DF92EF92FF92BC013B
:100CE00080E090E00E94FA0C2AE939E949E950E4F1
:100CF0000E94EE0D20E030EC4FE754E40E94610CBE
:100D00006B017C012DEC3CEC4CE05FE30E945D0C40
:100D100087FD24C023E333E343E550E4C701B60174
:100D20000E94EA0D1816E4F020E030E040E251E4C1
:100D3000C701B6010E94EE0D20E030E040E450E42F
:100D40000E94F80B9B01AC0160E070E088E493E442
:100D50000E94610C0E94CE0C862F03C080E501C06A
:100D600080E0FF90EF90DF90CF90089597B1907E54
:100D700097B990E088309105D0F4FC01E65DFF4F13
:100D80000C94E90B87B1807E11C0389A10C0399A53
:100D90000EC087B183600AC03A9A09C087B18560E6
:100DA00005C087B1866002C087B18C6087B9369A6A
:100DB0003699FECF87B1807E87B984B195B1089509
:100DC0003E9A86B1876886B9089581E00E94B6068A
:100DD0000C946B0680E00E94B6060C946B0682E0D1
:100DE0000E94B6060C946B0684E00E94B6060C9432
:100DF0006B0683E00E94B6060C946B0689B781608F
:100E000089BF83B7836083BF12BE08951F920F927C
:100E10000FB60F9211242F933F934F935F936F93CD
:100E20007F938F939F932091A0003091A1004091D8
:100E3000A2005091A3006091A4007091A500809140
:100E4000A6009091A70021503F4F4F4F5F4F6F4F2B
:100E50007F4F8F4F9F4F2093A0003093A10040936E
:100E6000A2005093A3006093A4007093A500809308
:100E7000A6009093A7009F918F917F916F915F91B2
:100E80004F913F912F910F900FBE0F901F9018958B
:100E900014BC89B7806489BF85B5876085BD089516
:100EA000AF92BF92CF92DF92EF92FF920F931F9378
:100EB000CF93DF93EC01A090A000B090A100C09070
:100EC000A200D090A300E090A400F090A5000091B3
:100ED000A6001091A70024B530E040E050E060E0AB
:100EE00070E080E090E00E94EF0B0E94370D2DEB48
:100EF00037E346E858E30E94EE0D688379838A83DE
:100F00009B83DF91CF911F910F91FF90EF90DF9026
:100F1000CF90BF90AF90089514BC1092A000109293
:100F2000A1001092A2001092A3001092A4001092AF
:100F3000A5001092A6001092A700089511B888E4A9
:100F400080B9089594EA96BF4FEF50E060E070E0FA
:100F500006B607FC06C04150510961097109C0F786
:100F600006C0452B462B472B11F481E0089591B123
:100F7000987F983011F09031C1F783B984E886BF2B
:100F80008FEF90E0A0E0B0E006B607FC05C0019747
:100F9000A109B109C8F704C0892B8A2B8B2B29F32F
:100FA00081B1887F883111F08034F9F680E00895AE
:100FB00084E986BF80E090E006B604FE05C0019695
:100FC000811521E09207C1F7089583B984E886BFAF
:100FD0008FEF90E0A0E0B0E006B607FC05C00197F7
:100FE000A109B109C8F704C0892B8A2B8B2B39F0D2
:100FF00091B1987F81E0983219F480E0089581E002
:10100000089584EC86BF8FEF90E0A0E0B0E006B6D4
:1010100007FC05C00197A109B109C8F704C0892BD5
:101020008A2B8B2B11F083B1089580E0089584E81A
:1010300086BF8FEF90E0A0E0B0E006B607FC05C0E9
:101040000197A109B109C8F704C0892B8A2B8B2B02
:1010500011F083B1089580E0089510BC87E689B946
:101060008AB188618AB980B5866880BD0895A3E198
:10107000B0E0EDE3F8E00C94B20B7C011B016A01D7
:10108000FC0117821682838181FF66C3BE016F5FF8
:101090007F4F4B01F7019381F10193FD859193FF00
:1010A00081911F01882309F453C3853239F493FDDC
:1010B000859193FF81911F01853239F4B70190E04A
:1010C0000E943F0F56016501E5CF10E0512C20E052
:1010D0002032A0F48B3269F030F4803259F0833240
:1010E00069F420612CC08D3239F0803339F42160ED
:1010F00026C02260246023C0286021C027FD27C0AD
:1011000030ED380F3A3078F426FF06C0FAE01F9F22
:10111000300D1124132F13C06AE0569E300D112498
:10112000532E20620CC08E3221F426FD11C32064A0
:1011300006C08C3611F4206802C0883641F4F101F3
:1011400093FD859193FF81911F018111C1CF9BEB8D
:10115000980F933018F42061805E06C09BE9980FC9
:10116000933008F0AAC12F7E26FF16E02F73722E4F
:10117000853621F4F22FF0647F2E08C0863621F4E4
:10118000622F6068762E02C01111115077FE07C0E1
:101190001C3348F444244394410E27E00BC018301C
:1011A00030F4212F06C027E04CE3442E03C027E093
:1011B00017E0412C560174E0A70EB11CF6016081C6
:1011C000718182819381042DA4010E94510E6C01D2
:1011D000098100FF02C003FF06C071FC07C072FC5A
:1011E00008C0612C08C03DE2632E05C02BE2622ED0
:1011F00002C090E2692E802F8C7099F1662011F068
:1012000084E001C083E0851510F0512C0BC0581A02
:1012100073FC08C0B70180E290E00E943F0F5A942F
:10122000C9F7F3CF662029F0B701862D90E00E9420
:101230003F0F03FD03C008E610E002C004E610E023
:10124000F72DF0717F2EF8018491882309F476C27E
:1012500071108052B70190E00E943F0F0F5F1F4F47
:10126000F2CF77FE0FC04C0C04FF04C08A8181339B
:1012700009F44A94141474F5F8E0F41578F588E04C
:10128000482E2CC076FC2AC0812F90E08C159D053D
:101290009CF06CEFC6166FEFD60674F0772D706871
:1012A000772E0AC0E2E0F0E0EC0FFD1FE10FF11D28
:1012B0008081803319F411501111F4CF77FE0EC0E4
:1012C00044244394410E812F90E0C816D9062CF493
:1012D0001C1904C04424439401C010E077FE07C0E9
:1012E0001C141D043CF496012F5F3F4F05C025E000
:1012F00030E002C021E030E0662011F02F5F3F4F68
:10130000112331F0412F50E04F5F5F4F240F351F05
:10131000452D50E02417350714F4521A01C0512C02
:10132000872D897049F4552039F0B70180E290E0AB
:101330000E943F0F5A94F7CF662029F0B701862DFF
:1013400090E00E943F0F73FC09C0552039F0B701AF
:1013500080E390E00E943F0F5A94F7CF77FE5FC082
:101360009C2D8D2DD7FE02C090E080E0692E782E56
:1013700040E050E0C601841991099D878C87960151
:1013800026193709280D391D812F90E0EE27FF27F8
:10139000E81BF90BFF87EE87FFEF6F167F0669F4F6
:1013A000B7018EE290E02B8B3A8B488B598B0E94D1
:1013B0003F0F598948893A892B89C614D70454F0BC
:1013C0006C857D85661577052CF4F901E40FF51F12
:1013D000818101C080E371E0671A71084F5F5F4F40
:1013E000EE85FF856E167F066CF0B70190E02B8BC3
:1013F0003A8B488B598B0E943F0F2B893A89488939
:101400005989CACF6C147D0439F49A81963318F443
:10141000953311F404FF81E3B70190E04BC08A815A
:10142000813309F00F7EB70190E00E943F0F111148
:1014300005C074FE18C085E490E017C0B7018EE2C5
:1014400090E00E943F0F82E066246394680EF401EE
:10145000E80FF11D8081B70190E00E943F0F11500D
:1014600041F3862DF1CF85E690E0B7010E943F0F52
:10147000D7FC05C0C114D10439F404FF05C0D194D0
:10148000C194D1088DE201C08BE2B70190E00E94C7
:101490003F0F80E36AE0C616D1042CF08F5FFAE0BC
:1014A000CF1AD108F7CFB70190E00E943F0FB701E4
:1014B000C601C0960E943F0F41C1833631F0833789
:1014C00079F0833509F058C021C0560172E0A70EAB
:1014D000B11CF6018081898301E010E0640114C031
:1014E0005601F2E0AF0EB11CF601C080D18026FF9C
:1014F00003C0612F70E002C06FEF7FEFC6012B8B3E
:101500000E94340F8C012B892F7715C05601F2E011
:10151000AF0EB11CF601C080D18026FF03C0612F41
:1015200070E002C06FEF7FEFC6012B8B0E94290F86
:101530008C012B892068722E23FD1AC0852D90E026
:1015400008171907A8F4B70180E290E00E943F0F46
:101550005A94F4CFF60177FC859177FE81916F0163
:10156000B70190E00E943F0F51105A9401501109A9
:101570000115110579F7E2C0843611F0893651F56D
:10158000560127FF09C0F4E0AF0EB11CF6016081DF
:101590007181828193810AC0F2E0AF0EB11CF60125
:1015A00060817181882777FD8095982F022F0F76B3
:1015B00097FF08C090958095709561957F4F8F4FEC
:1015C0009F4F00682AE030E0A4010E94710FC82EEE
:1015D000C8183EC0022F853721F40F7E2AE030E084
:1015E0001DC0097F8F3691F018F4883559F0B0C0CE
:1015F000803719F0883711F0ABC0006104FF09C0D3
:10160000046007C024FF08C0066006C028E030E080
:1016100005C020E130E002C020E132E0560107FFC2
:1016200009C0F4E0AF0EB11CF601608171818281C6
:10163000938108C0F2E0AF0EB11CF60160817181A8
:1016400080E090E0A4010E94710FC82EC8180F77A7
:1016500006FF0BC0202F2E7FC11650F404FF0AC0D6
:1016600002FD08C0202F2E7E05C0DC2C202F03C0D9
:10167000DC2C01C0D12E24FF0DC0FE01EC0DF11DAC
:101680008081803311F4297E09C022FF06C0D394E3
:10169000D39404C0822F867809F0D39423FD13C01D
:1016A00020FF06C01C2DD51418F4150D1D19D52CBE
:1016B000D51468F4B70180E290E02B8B0E943F0FB5
:1016C000D3942B89F5CFD51410F45D1801C0512C9B
:1016D00024FF12C0B70180E390E02B8B0E943F0FE4
:1016E0002B8922FF17C021FF03C088E590E002C0CC
:1016F00088E790E0B7010CC0822F867859F021FD71
:1017000002C080E201C08BE227FD8DE2B70190E0CC
:101710000E943F0FC11638F4B70180E390E00E94A9
:101720003F0F1150F7CFCA94F401EC0DF11D8081E9
:10173000B70190E00E943F0FC110F5CF552009F48A
:10174000C2CCB70180E290E00E943F0F5A94F6CFDE
:10175000F7018681978102C08FEF9FEF6396E2E1E8
:101760000C94CE0B2F923F924F925F926F927F928A
:101770008F929F92AF92BF92CF92DF92EF92FF92A1
:101780000F931F93CF93DF93CDB7DEB7CA1BDB0B4D
:101790000FB6F894DEBF0FBECDBF09942A883988F2
:1017A00048885F846E847D848C849B84AA84B984F9
:1017B000C884DF80EE80FD800C811B81AA81B98105
:1017C000CE0FD11D0FB6F894DEBF0FBECDBFED0119
:1017D0000895EE0FFF1F0590F491E02D09942A0D56
:1017E0003B1D4C1D5D1D6E1D7F1D801F911F0895AB
:1017F0005058BB27AA270ED0B3C1A4D130F0A9D12D
:1018000020F031F49F3F11F41EF499C10EF4E095DD
:10181000E7FB8FC1E92FB5D180F3BA1762077307D1
:101820008407950718F071F49EF5CDC10EF4E0958C
:101830000B2EBA2FA02D0B01B90190010C01CA018A
:10184000A0011124FF27591B99F0593F50F4503E35
:1018500068F11A16F040A22F232F342F4427585F27
:10186000F3CF469537952795A795F0405395C9F73F
:101870007EF41F16BA0B620B730B840BBAF09150F7
:10188000A1F0FF0FBB1F661F771F881FC2F70EC096
:10189000BA0F621F731F841F48F487957795679569
:1018A000B795F7959E3F08F0B3CF9395880F08F052
:1018B0009927EE0F97958795089517D108F481E041
:1018C00008950CD04DC145D140F03CD130F021F409
:1018D0005F3F19F02EC1511177C131C152D198F338
:1018E0009923C9F35523B1F3951B550BBB27AA27A1
:1018F00062177307840738F09F5F5F4F220F331F13
:10190000441FAA1FA9F333D00E2E3AF0E0E830D0DE
:1019100091505040E695001CCAF729D0FE2F27D0E1
:10192000660F771F881FBB1F261737074807AB07AF
:10193000B0E809F0BB0B802DBF01FF2793585F4F24
:101940002AF09E3F510568F0F4C03EC15F3FECF3C2
:10195000983EDCF3869577956795B795F7959F5FE9
:10196000C9F7880F911D9695879597F90895E1E03D
:10197000660F771F881FBB1F621773078407BA079C
:1019800020F0621B730B840BBA0BEE1F88F7E095F7
:10199000089504D06894B11117C10895FAD088F061
:1019A0009F5790F0B92F9927B751A0F0D1F0660F4B
:1019B000771F881F991F1AF0BA95C9F712C0B13066
:1019C00081F001D1B1E00895FEC0672F782F8827FC
:1019D000B85F39F0B93FCCF3869577956795B395A5
:1019E000D9F73EF490958095709561957F4F8F4F14
:1019F0009F4F0895E89409C097FB3EF49095809519
:101A0000709561957F4F8F4F9F4F9923A9F0F92FC4
:101A100096E9BB279395F695879577956795B79542
:101A2000F111F8CFFAF4BB0F11F460FF1BC06F5F28
:101A30007F4F8F4F9F4F16C0882311F096E911C03A
:101A4000772321F09EE8872F762F05C0662371F05B
:101A500096E8862F70E060E02AF09A95660F771F6F
:101A6000881FDAF7880F9695879597F90895E89477
:101A7000F92F96EBFF2381F0121613061406440B80
:101A80009395F69587957795679557954040FF23F1
:101A9000B9F71BC099270895882351F49850D2F7BD
:101AA000872B762F652F542F432F322F20E0B1F351
:101AB000121613061406440B88233AF09A95440F25
:101AC000551F661F771F881FCAF755234AF4440F16
:101AD000551F11F460FF04C06F5F7F4F8F4F9F4F02
:101AE000880F9695879597F90895990F0008550FD7
:101AF000AA0BE0E8FEEF16161706E807F907C0F094
:101B000012161306E407F50798F0621B730B840B9B
:101B1000950B39F40A2661F0232B242B252B21F475
:101B200008950A2609F4A140A6958FEF811D811D15
:101B3000089597F99F6780E870E060E008959FEF4F
:101B400080EC089500240A94161617061806090654
:101B5000089500240A941216130614060506089523
:101B6000092E0394000C11F4882352F0BB0F40F4AB
:101B7000BF2B11F460FF04C06F5F7F4F8F4F9F4FEB
:101B8000089557FD9058440F551F59F05F3F71F06D
:101B90004795880F97FB991F61F09F3F79F08795D4
:101BA0000895121613061406551FF2CF4695F1DF5D
:101BB00008C0161617061806991FF1CF86957105ED
:101BC000610508940895E894BB2766277727CB0121
:101BD00097F908958ADF08F48FEF08950BD0C0CFEE
:101BE000B1DF28F0B6DF18F0952309F0A2CFA7CF18
:101BF0001124EACFC6DFA0F3959FD1F3950F50E0F3
:101C0000551F629FF001729FBB27F00DB11D639FAE
:101C1000AA27F00DB11DAA1F649F6627B00DA11D54
:101C2000661F829F2227B00DA11D621F739FB00DFA
:101C3000A11D621F839FA00D611D221F749F33276A
:101C4000A00D611D231F849F600D211D822F762F03
:101C50006A2F11249F5750408AF0E1F088234AF000
:101C6000EE0FFF1FBB1F661F771F881F915050404C
:101C7000A9F79E3F510570F05CCFA6CF5F3FECF314
:101C8000983EDCF3869577956795B795F795E79538
:101C90009F5FC1F7FE2B880F911D9695879597F949
:101CA0000895283008F027E03327DA01990F311D15
:101CB00087FD916000966105710539F432602E5FF1
:101CC0003D9330E32A95E1F708959F3F30F0803847
:101CD0007105610509F03C5F3C5F3D93913008F070
:101CE0008068911DDF93CF931F930F93FF92EF9224
:101CF000192F987F9695E92F96959695E90FFF27CE
:101D0000EA53FF4F99273327EE24FF24A701E70169
:101D100005900894079428F4360FE71EF81E491F13
:101D2000511D660F771F881F991F0694A1F7059014
:101D3000079428F4E70EF81E491F561FC11D770FA0
:101D4000881F991F661F0694A1F70590079428F431
:101D5000F80E491F561FC71FD11D880F991F661FF8
:101D6000771F0694A1F70590079420F4490F561F9A
:101D7000C71FD81F990F661F771F881F0694A9F7E2
:101D800084911095177041F0D695C7955795479552
:101D9000F794E7941A95C1F7ECE6F0E06894159093
:101DA000159135916591959105907FE27395E118B4
:101DB000F10A430B560BC90BD009C0F7E10CF11E19
:101DC000431F561FC91FD01D7EF4703311F48A952E
:101DD000E6CFE894015030F0080F0AF4002702170C
:101DE00008F4202F2395022F7A3328F079E37D938E
:101DF0002A95E9F710C07D932A9589F60694979560
:101E00006795379517951794E118F10A430B560B10
:101E1000C90BD00998F023957E9173957A3308F019
:101E200070E37C932013B8F77E9170617D9330F05E
:101E3000839571E37D9370E32A95E1F71124EF9088
:101E4000FF900F911F91CF91DF91992787FD90957A
:101E50000895FC010590615070400110D8F78095FD
:101E600090958E0F9F1F0895FC0161507040019066
:101E70000110D8F7809590958E0F9F1F08950F93AE
:101E80001F93CF93DF93182F092FEB018B8181FDD7
:101E900003C08FEF9FEF20C082FF10C04E815F8193
:101EA0002C813D81421753077CF4E881F9819F0121
:101EB0002F5F3F4F39832883108306C0E885F9855B
:101EC000812F0995892B29F72E813F812F5F3F4F65
:101ED0003F832E83812F902FDF91CF911F910F9100
:101EE0000895FA01AA27283051F1203181F1E894B0
:101EF0006F936E7F6E5F7F4F8F4F9F4FAF4FB1E0FD
:101F00003ED0B4E03CD0670F781F891F9A1FA11DF7
:101F1000680F791F8A1F911DA11D6A0F711D811DF8
:101F2000911DA11D20D009F468943F912AE0269FBD
:101F300011243019305D3193DEF6CF010895462F1C
:101F40004770405D4193B3E00FD0C9F7F6CF462FFD
:101F50004F70405D4A3318F0495D31FD4052419366
:101F600002D0A9F7EACFB4E0A69597958795779523
:101F70006795BA95C9F700976105710508959B01AA
:101F8000AC010A2E06945795479537952795BA9533
:101F9000C9F7620F731F841F951FA01D0895F89441
:021FA000FFCF71
:0A1FA2009600010100002E0120004E
:00000001FF
